{
  "_format": "hh-sol-artifact-1",
  "contractName": "BorrowYourCar",
  "sourceName": "contracts/BorrowYourCar.sol",
  "abi": [
    {
      "inputs": [],
      "stateMutability": "nonpayable",
      "type": "constructor"
    },
    {
      "inputs": [
        {
          "internalType": "address",
          "name": "sender",
          "type": "address"
        },
        {
          "internalType": "uint256",
          "name": "tokenId",
          "type": "uint256"
        },
        {
          "internalType": "address",
          "name": "owner",
          "type": "address"
        }
      ],
      "name": "ERC721IncorrectOwner",
      "type": "error"
    },
    {
      "inputs": [
        {
          "internalType": "address",
          "name": "operator",
          "type": "address"
        },
        {
          "internalType": "uint256",
          "name": "tokenId",
          "type": "uint256"
        }
      ],
      "name": "ERC721InsufficientApproval",
      "type": "error"
    },
    {
      "inputs": [
        {
          "internalType": "address",
          "name": "approver",
          "type": "address"
        }
      ],
      "name": "ERC721InvalidApprover",
      "type": "error"
    },
    {
      "inputs": [
        {
          "internalType": "address",
          "name": "operator",
          "type": "address"
        }
      ],
      "name": "ERC721InvalidOperator",
      "type": "error"
    },
    {
      "inputs": [
        {
          "internalType": "address",
          "name": "owner",
          "type": "address"
        }
      ],
      "name": "ERC721InvalidOwner",
      "type": "error"
    },
    {
      "inputs": [
        {
          "internalType": "address",
          "name": "receiver",
          "type": "address"
        }
      ],
      "name": "ERC721InvalidReceiver",
      "type": "error"
    },
    {
      "inputs": [
        {
          "internalType": "address",
          "name": "sender",
          "type": "address"
        }
      ],
      "name": "ERC721InvalidSender",
      "type": "error"
    },
    {
      "inputs": [
        {
          "internalType": "uint256",
          "name": "tokenId",
          "type": "uint256"
        }
      ],
      "name": "ERC721NonexistentToken",
      "type": "error"
    },
    {
      "anonymous": false,
      "inputs": [
        {
          "indexed": true,
          "internalType": "address",
          "name": "owner",
          "type": "address"
        },
        {
          "indexed": true,
          "internalType": "address",
          "name": "approved",
          "type": "address"
        },
        {
          "indexed": true,
          "internalType": "uint256",
          "name": "tokenId",
          "type": "uint256"
        }
      ],
      "name": "Approval",
      "type": "event"
    },
    {
      "anonymous": false,
      "inputs": [
        {
          "indexed": true,
          "internalType": "address",
          "name": "owner",
          "type": "address"
        },
        {
          "indexed": true,
          "internalType": "address",
          "name": "operator",
          "type": "address"
        },
        {
          "indexed": false,
          "internalType": "bool",
          "name": "approved",
          "type": "bool"
        }
      ],
      "name": "ApprovalForAll",
      "type": "event"
    },
    {
      "anonymous": false,
      "inputs": [
        {
          "indexed": false,
          "internalType": "uint256",
          "name": "carTokenId",
          "type": "uint256"
        },
        {
          "indexed": false,
          "internalType": "address",
          "name": "borrower",
          "type": "address"
        },
        {
          "indexed": false,
          "internalType": "uint256",
          "name": "cancelTime",
          "type": "uint256"
        }
      ],
      "name": "CancelBorrow",
      "type": "event"
    },
    {
      "anonymous": false,
      "inputs": [
        {
          "indexed": false,
          "internalType": "uint256",
          "name": "carTokenId",
          "type": "uint256"
        },
        {
          "indexed": false,
          "internalType": "address",
          "name": "borrower",
          "type": "address"
        },
        {
          "indexed": false,
          "internalType": "uint256",
          "name": "startTime",
          "type": "uint256"
        },
        {
          "indexed": false,
          "internalType": "uint256",
          "name": "expireTime",
          "type": "uint256"
        }
      ],
      "name": "CarBorrowed",
      "type": "event"
    },
    {
      "anonymous": false,
      "inputs": [
        {
          "indexed": true,
          "internalType": "address",
          "name": "from",
          "type": "address"
        },
        {
          "indexed": true,
          "internalType": "address",
          "name": "to",
          "type": "address"
        },
        {
          "indexed": true,
          "internalType": "uint256",
          "name": "tokenId",
          "type": "uint256"
        }
      ],
      "name": "Transfer",
      "type": "event"
    },
    {
      "inputs": [
        {
          "internalType": "uint256",
          "name": "tokenId",
          "type": "uint256"
        },
        {
          "internalType": "uint256",
          "name": "hour",
          "type": "uint256"
        }
      ],
      "name": "Borrow",
      "outputs": [],
      "stateMutability": "nonpayable",
      "type": "function"
    },
    {
      "inputs": [],
      "name": "airdrop",
      "outputs": [],
      "stateMutability": "nonpayable",
      "type": "function"
    },
    {
      "inputs": [],
      "name": "airdropNumber",
      "outputs": [
        {
          "internalType": "uint256",
          "name": "",
          "type": "uint256"
        }
      ],
      "stateMutability": "view",
      "type": "function"
    },
    {
      "inputs": [
        {
          "internalType": "address",
          "name": "to",
          "type": "address"
        },
        {
          "internalType": "uint256",
          "name": "tokenId",
          "type": "uint256"
        }
      ],
      "name": "approve",
      "outputs": [],
      "stateMutability": "nonpayable",
      "type": "function"
    },
    {
      "inputs": [
        {
          "internalType": "address",
          "name": "owner",
          "type": "address"
        }
      ],
      "name": "balanceOf",
      "outputs": [
        {
          "internalType": "uint256",
          "name": "",
          "type": "uint256"
        }
      ],
      "stateMutability": "view",
      "type": "function"
    },
    {
      "inputs": [
        {
          "internalType": "uint256",
          "name": "tokenId",
          "type": "uint256"
        }
      ],
      "name": "borrowerExpires",
      "outputs": [
        {
          "internalType": "uint256",
          "name": "",
          "type": "uint256"
        }
      ],
      "stateMutability": "view",
      "type": "function"
    },
    {
      "inputs": [
        {
          "internalType": "uint256",
          "name": "tokenId",
          "type": "uint256"
        }
      ],
      "name": "borrowerOf",
      "outputs": [
        {
          "internalType": "address",
          "name": "",
          "type": "address"
        }
      ],
      "stateMutability": "view",
      "type": "function"
    },
    {
      "inputs": [
        {
          "internalType": "uint256",
          "name": "tokenId",
          "type": "uint256"
        }
      ],
      "name": "cancelBorrow",
      "outputs": [],
      "stateMutability": "nonpayable",
      "type": "function"
    },
    {
      "inputs": [
        {
          "internalType": "uint256",
          "name": "",
          "type": "uint256"
        }
      ],
      "name": "cars",
      "outputs": [
        {
          "internalType": "address",
          "name": "borrower",
          "type": "address"
        },
        {
          "internalType": "uint256",
          "name": "expires",
          "type": "uint256"
        }
      ],
      "stateMutability": "view",
      "type": "function"
    },
    {
      "inputs": [],
      "name": "coinPerHour",
      "outputs": [
        {
          "internalType": "uint256",
          "name": "",
          "type": "uint256"
        }
      ],
      "stateMutability": "view",
      "type": "function"
    },
    {
      "inputs": [
        {
          "internalType": "uint256",
          "name": "tokenId",
          "type": "uint256"
        }
      ],
      "name": "getApproved",
      "outputs": [
        {
          "internalType": "address",
          "name": "",
          "type": "address"
        }
      ],
      "stateMutability": "view",
      "type": "function"
    },
    {
      "inputs": [],
      "name": "getCars",
      "outputs": [
        {
          "internalType": "uint256[]",
          "name": "",
          "type": "uint256[]"
        }
      ],
      "stateMutability": "view",
      "type": "function"
    },
    {
      "inputs": [],
      "name": "getMyborrowedCars",
      "outputs": [
        {
          "internalType": "uint256[]",
          "name": "",
          "type": "uint256[]"
        }
      ],
      "stateMutability": "view",
      "type": "function"
    },
    {
      "inputs": [],
      "name": "getUnborrowedCars",
      "outputs": [
        {
          "internalType": "uint256[]",
          "name": "",
          "type": "uint256[]"
        }
      ],
      "stateMutability": "view",
      "type": "function"
    },
    {
      "inputs": [],
      "name": "helloworld",
      "outputs": [
        {
          "internalType": "string",
          "name": "",
          "type": "string"
        }
      ],
      "stateMutability": "pure",
      "type": "function"
    },
    {
      "inputs": [
        {
          "internalType": "address",
          "name": "owner",
          "type": "address"
        },
        {
          "internalType": "address",
          "name": "operator",
          "type": "address"
        }
      ],
      "name": "isApprovedForAll",
      "outputs": [
        {
          "internalType": "bool",
          "name": "",
          "type": "bool"
        }
      ],
      "stateMutability": "view",
      "type": "function"
    },
    {
      "inputs": [],
      "name": "myERC20",
      "outputs": [
        {
          "internalType": "contract MyERC20",
          "name": "",
          "type": "address"
        }
      ],
      "stateMutability": "view",
      "type": "function"
    },
    {
      "inputs": [],
      "name": "name",
      "outputs": [
        {
          "internalType": "string",
          "name": "",
          "type": "string"
        }
      ],
      "stateMutability": "view",
      "type": "function"
    },
    {
      "inputs": [
        {
          "internalType": "uint256",
          "name": "tokenId",
          "type": "uint256"
        }
      ],
      "name": "ownerOf",
      "outputs": [
        {
          "internalType": "address",
          "name": "",
          "type": "address"
        }
      ],
      "stateMutability": "view",
      "type": "function"
    },
    {
      "inputs": [
        {
          "internalType": "address",
          "name": "from",
          "type": "address"
        },
        {
          "internalType": "address",
          "name": "to",
          "type": "address"
        },
        {
          "internalType": "uint256",
          "name": "tokenId",
          "type": "uint256"
        }
      ],
      "name": "safeTransferFrom",
      "outputs": [],
      "stateMutability": "nonpayable",
      "type": "function"
    },
    {
      "inputs": [
        {
          "internalType": "address",
          "name": "from",
          "type": "address"
        },
        {
          "internalType": "address",
          "name": "to",
          "type": "address"
        },
        {
          "internalType": "uint256",
          "name": "tokenId",
          "type": "uint256"
        },
        {
          "internalType": "bytes",
          "name": "data",
          "type": "bytes"
        }
      ],
      "name": "safeTransferFrom",
      "outputs": [],
      "stateMutability": "nonpayable",
      "type": "function"
    },
    {
      "inputs": [
        {
          "internalType": "address",
          "name": "operator",
          "type": "address"
        },
        {
          "internalType": "bool",
          "name": "approved",
          "type": "bool"
        }
      ],
      "name": "setApprovalForAll",
      "outputs": [],
      "stateMutability": "nonpayable",
      "type": "function"
    },
    {
      "inputs": [
        {
          "internalType": "bytes4",
          "name": "interfaceId",
          "type": "bytes4"
        }
      ],
      "name": "supportsInterface",
      "outputs": [
        {
          "internalType": "bool",
          "name": "",
          "type": "bool"
        }
      ],
      "stateMutability": "view",
      "type": "function"
    },
    {
      "inputs": [],
      "name": "symbol",
      "outputs": [
        {
          "internalType": "string",
          "name": "",
          "type": "string"
        }
      ],
      "stateMutability": "view",
      "type": "function"
    },
    {
      "inputs": [
        {
          "internalType": "uint256",
          "name": "tokenId",
          "type": "uint256"
        }
      ],
      "name": "tokenURI",
      "outputs": [
        {
          "internalType": "string",
          "name": "",
          "type": "string"
        }
      ],
      "stateMutability": "view",
      "type": "function"
    },
    {
      "inputs": [
        {
          "internalType": "address",
          "name": "from",
          "type": "address"
        },
        {
          "internalType": "address",
          "name": "to",
          "type": "address"
        },
        {
          "internalType": "uint256",
          "name": "tokenId",
          "type": "uint256"
        }
      ],
      "name": "transferFrom",
      "outputs": [],
      "stateMutability": "nonpayable",
      "type": "function"
    }
  ],
  "bytecode": "0x60806040523480156200001157600080fd5b506040518060400160405280600d81526020017f426f72726f77596f7572436172000000000000000000000000000000000000008152506040518060400160405280600481526020017f636172730000000000000000000000000000000000000000000000000000000081525081600090816200008f9190620003b6565b508060019081620000a19190620003b6565b505050600060088190555060036009819055506001600a81905550604051620000ca906200012e565b604051809103906000f080158015620000e7573d6000803e3d6000fd5b50600b60006101000a81548173ffffffffffffffffffffffffffffffffffffffff021916908373ffffffffffffffffffffffffffffffffffffffff1602179055506200049d565b611492806200354483390190565b600081519050919050565b7f4e487b7100000000000000000000000000000000000000000000000000000000600052604160045260246000fd5b7f4e487b7100000000000000000000000000000000000000000000000000000000600052602260045260246000fd5b60006002820490506001821680620001be57607f821691505b602082108103620001d457620001d362000176565b5b50919050565b60008190508160005260206000209050919050565b60006020601f8301049050919050565b600082821b905092915050565b6000600883026200023e7fffffffffffffffffffffffffffffffffffffffffffffffffffffffffffffffff82620001ff565b6200024a8683620001ff565b95508019841693508086168417925050509392505050565b6000819050919050565b6000819050919050565b600062000297620002916200028b8462000262565b6200026c565b62000262565b9050919050565b6000819050919050565b620002b38362000276565b620002cb620002c2826200029e565b8484546200020c565b825550505050565b600090565b620002e2620002d3565b620002ef818484620002a8565b505050565b5b8181101562000317576200030b600082620002d8565b600181019050620002f5565b5050565b601f82111562000366576200033081620001da565b6200033b84620001ef565b810160208510156200034b578190505b620003636200035a85620001ef565b830182620002f4565b50505b505050565b600082821c905092915050565b60006200038b600019846008026200036b565b1980831691505092915050565b6000620003a6838362000378565b9150826002028217905092915050565b620003c1826200013c565b67ffffffffffffffff811115620003dd57620003dc62000147565b5b620003e98254620001a5565b620003f68282856200031b565b600060209050601f8311600181146200042e576000841562000419578287015190505b62000425858262000398565b86555062000495565b601f1984166200043e86620001da565b60005b82811015620004685784890151825560018201915060208501945060208101905062000441565b8683101562000488578489015162000484601f89168262000378565b8355505b6001600288020188555050505b505050505050565b61309780620004ad6000396000f3fe608060405234801561001057600080fd5b506004361061018e5760003560e01c80634aa147f6116100de578063a22cb46511610097578063b88d4fde11610071578063b88d4fde14610473578063c87b56dd1461048f578063e985e9c5146104bf578063f7746e36146104ef5761018e565b8063a22cb46514610409578063a7afbe1714610425578063b60158aa146104435761018e565b80634aa147f6146103315780636352211e1461034f5780636d3739c41461037f57806370a082311461039d5780637cfd5e38146103cd57806395d89b41146103eb5761018e565b806317c392861161014b5780632f2f4859116101255780632f2f4859146102d15780633884d635146102ef57806342842e0e146102f957806345c492c2146103155761018e565b806317c392861461026757806323b872dd146102855780632a24d53d146102a15761018e565b806301ffc9a714610193578063044ec4d3146101c357806306fdde03146101df57806307672a18146101fd578063081812fc1461021b578063095ea7b31461024b575b600080fd5b6101ad60048036038101906101a891906122ee565b610520565b6040516101ba9190612336565b60405180910390f35b6101dd60048036038101906101d89190612387565b610602565b005b6101e7610869565b6040516101f49190612457565b60405180910390f35b6102056108fb565b6040516102129190612537565b60405180910390f35b61023560048036038101906102309190612559565b610a88565b60405161024291906125c7565b60405180910390f35b6102656004803603810190610260919061260e565b610aa4565b005b61026f610aba565b60405161027c9190612537565b60405180910390f35b61029f600480360381019061029a919061264e565b610bc7565b005b6102bb60048036038101906102b69190612559565b610cc9565b6040516102c891906125c7565b60405180910390f35b6102d9610d30565b6040516102e69190612457565b60405180910390f35b6102f7610d6d565b005b610313600480360381019061030e919061264e565b610ea1565b005b61032f600480360381019061032a9190612559565b610ec1565b005b610339611057565b6040516103469190612537565b60405180910390f35b61036960048036038101906103649190612559565b6111e3565b60405161037691906125c7565b60405180910390f35b6103876111f5565b6040516103949190612700565b60405180910390f35b6103b760048036038101906103b2919061271b565b61121b565b6040516103c49190612757565b60405180910390f35b6103d56112d5565b6040516103e29190612757565b60405180910390f35b6103f36112db565b6040516104009190612457565b60405180910390f35b610423600480360381019061041e919061279e565b61136d565b005b61042d611383565b60405161043a9190612757565b60405180910390f35b61045d60048036038101906104589190612559565b611389565b60405161046a9190612757565b60405180910390f35b61048d60048036038101906104889190612913565b6113a9565b005b6104a960048036038101906104a49190612559565b6113c6565b6040516104b69190612457565b60405180910390f35b6104d960048036038101906104d49190612996565b61142f565b6040516104e69190612336565b60405180910390f35b61050960048036038101906105049190612559565b6114c3565b6040516105179291906129d6565b60405180910390f35b60007f80ac58cd000000000000000000000000000000000000000000000000000000007bffffffffffffffffffffffffffffffffffffffffffffffffffffffff1916827bffffffffffffffffffffffffffffffffffffffffffffffffffffffff191614806105eb57507f5b5e139f000000000000000000000000000000000000000000000000000000007bffffffffffffffffffffffffffffffffffffffffffffffffffffffff1916827bffffffffffffffffffffffffffffffffffffffffffffffffffffffff1916145b806105fb57506105fa82611507565b5b9050919050565b600061060d83611571565b9050600073ffffffffffffffffffffffffffffffffffffffff168173ffffffffffffffffffffffffffffffffffffffff160361067e576040517f08c379a000000000000000000000000000000000000000000000000000000000815260040161067590612a71565b60405180910390fd5b600073ffffffffffffffffffffffffffffffffffffffff1661069f84610cc9565b73ffffffffffffffffffffffffffffffffffffffff16146106f5576040517f08c379a00000000000000000000000000000000000000000000000000000000081526004016106ec90612b03565b60405180910390fd5b6000610e10836107059190612b52565b426107109190612b94565b9050600b60009054906101000a900473ffffffffffffffffffffffffffffffffffffffff1673ffffffffffffffffffffffffffffffffffffffff166323b872dd3384600a54876107609190612b52565b6040518463ffffffff1660e01b815260040161077e93929190612bc8565b6020604051808303816000875af115801561079d573d6000803e3d6000fd5b505050506040513d601f19601f820116820180604052508101906107c19190612c14565b506000600660008681526020019081526020016000209050338160000160006101000a81548173ffffffffffffffffffffffffffffffffffffffff021916908373ffffffffffffffffffffffffffffffffffffffff1602179055508181600101819055507f8879d78706834dc00d82232992f71250fab6a1f70b08260968253950083d88cd8533428560405161085a9493929190612c41565b60405180910390a15050505050565b60606000805461087890612cb5565b80601f01602080910402602001604051908101604052809291908181526020018280546108a490612cb5565b80156108f15780601f106108c6576101008083540402835291602001916108f1565b820191906000526020600020905b8154815290600101906020018083116108d457829003601f168201915b5050505050905090565b6060600060085467ffffffffffffffff81111561091b5761091a6127e8565b5b6040519080825280602002602001820160405280156109495781602001602082028036833780820191505090505b5090506000805b6008548110156109d857600073ffffffffffffffffffffffffffffffffffffffff1661097b82610cc9565b73ffffffffffffffffffffffffffffffffffffffff16036109c557808383815181106109aa576109a9612ce6565b5b60200260200101818152505081806109c190612d15565b9250505b80806109d090612d15565b915050610950565b5060008167ffffffffffffffff8111156109f5576109f46127e8565b5b604051908082528060200260200182016040528015610a235781602001602082028036833780820191505090505b50905060005b82811015610a7e57838181518110610a4457610a43612ce6565b5b6020026020010151828281518110610a5f57610a5e612ce6565b5b6020026020010181815250508080610a7690612d15565b915050610a29565b5080935050505090565b6000610a93826115ae565b50610a9d82611636565b9050919050565b610ab68282610ab1611673565b61167b565b5050565b60606000610ac73361121b565b905060008167ffffffffffffffff811115610ae557610ae46127e8565b5b604051908082528060200260200182016040528015610b135781602001602082028036833780820191505090505b50905060008203610b28578092505050610bc4565b6000805b600854811015610bbc573373ffffffffffffffffffffffffffffffffffffffff16610b5682611571565b73ffffffffffffffffffffffffffffffffffffffff1603610ba95780838381518110610b8557610b84612ce6565b5b602002602001018181525050600182610b9e9190612b94565b915083820315610bbc575b8080610bb490612d15565b915050610b2c565b508193505050505b90565b600073ffffffffffffffffffffffffffffffffffffffff168273ffffffffffffffffffffffffffffffffffffffff1603610c395760006040517f64a0ae92000000000000000000000000000000000000000000000000000000008152600401610c3091906125c7565b60405180910390fd5b6000610c4d8383610c48611673565b61168d565b90508373ffffffffffffffffffffffffffffffffffffffff168173ffffffffffffffffffffffffffffffffffffffff1614610cc3578382826040517f64283d7b000000000000000000000000000000000000000000000000000000008152600401610cba93929190612d5d565b60405180910390fd5b50505050565b600042600660008481526020019081526020016000206001015410610d26576006600083815260200190815260200160002060000160009054906101000a900473ffffffffffffffffffffffffffffffffffffffff169050610d2b565b600090505b919050565b60606040518060400160405280600b81526020017f68656c6c6f20776f726c64000000000000000000000000000000000000000000815250905090565b60001515600760003373ffffffffffffffffffffffffffffffffffffffff1673ffffffffffffffffffffffffffffffffffffffff16815260200190815260200160002060009054906101000a900460ff16151514610e00576040517f08c379a0000000000000000000000000000000000000000000000000000000008152600401610df790612e06565b60405180910390fd5b60005b600954811015610e4657610e19336008546118a7565b600160086000828254610e2c9190612b94565b925050819055508080610e3e90612d15565b915050610e03565b506001600760003373ffffffffffffffffffffffffffffffffffffffff1673ffffffffffffffffffffffffffffffffffffffff16815260200190815260200160002060006101000a81548160ff021916908315150217905550565b610ebc838383604051806020016040528060008152506113a9565b505050565b6000610ecc82611571565b9050600073ffffffffffffffffffffffffffffffffffffffff168173ffffffffffffffffffffffffffffffffffffffff1603610f3d576040517f08c379a0000000000000000000000000000000000000000000000000000000008152600401610f3490612a71565b60405180910390fd5b610f4682610cc9565b73ffffffffffffffffffffffffffffffffffffffff163373ffffffffffffffffffffffffffffffffffffffff1614610fb3576040517f08c379a0000000000000000000000000000000000000000000000000000000008152600401610faa90612e98565b60405180910390fd5b600060066000848152602001908152602001600020905060008160000160006101000a81548173ffffffffffffffffffffffffffffffffffffffff021916908373ffffffffffffffffffffffffffffffffffffffff1602179055504281600101819055507f6a40c5e4f46c1f679964d00eb835541742972c3b6acf886a6b05aa35d3bcb6ec83334260405161104a93929190612eb8565b60405180910390a1505050565b6060600060085467ffffffffffffffff811115611077576110766127e8565b5b6040519080825280602002602001820160405280156110a55781602001602082028036833780820191505090505b5090506000805b600854811015611133573373ffffffffffffffffffffffffffffffffffffffff166110d682610cc9565b73ffffffffffffffffffffffffffffffffffffffff1603611120578083838151811061110557611104612ce6565b5b602002602001018181525050818061111c90612d15565b9250505b808061112b90612d15565b9150506110ac565b5060008167ffffffffffffffff8111156111505761114f6127e8565b5b60405190808252806020026020018201604052801561117e5781602001602082028036833780820191505090505b50905060005b828110156111d95783818151811061119f5761119e612ce6565b5b60200260200101518282815181106111ba576111b9612ce6565b5b60200260200101818152505080806111d190612d15565b915050611184565b5080935050505090565b60006111ee826115ae565b9050919050565b600b60009054906101000a900473ffffffffffffffffffffffffffffffffffffffff1681565b60008073ffffffffffffffffffffffffffffffffffffffff168273ffffffffffffffffffffffffffffffffffffffff160361128e5760006040517f89c62b6400000000000000000000000000000000000000000000000000000000815260040161128591906125c7565b60405180910390fd5b600360008373ffffffffffffffffffffffffffffffffffffffff1673ffffffffffffffffffffffffffffffffffffffff168152602001908152602001600020549050919050565b60095481565b6060600180546112ea90612cb5565b80601f016020809104026020016040519081016040528092919081815260200182805461131690612cb5565b80156113635780601f1061133857610100808354040283529160200191611363565b820191906000526020600020905b81548152906001019060200180831161134657829003601f168201915b5050505050905090565b61137f611378611673565b83836118c5565b5050565b600a5481565b600060066000838152602001908152602001600020600101549050919050565b6113b4848484610bc7565b6113c084848484611a34565b50505050565b60606113d1826115ae565b5060006113dc611beb565b905060008151116113fc5760405180602001604052806000815250611427565b8061140684611c02565b604051602001611417929190612f2b565b6040516020818303038152906040525b915050919050565b6000600560008473ffffffffffffffffffffffffffffffffffffffff1673ffffffffffffffffffffffffffffffffffffffff16815260200190815260200160002060008373ffffffffffffffffffffffffffffffffffffffff1673ffffffffffffffffffffffffffffffffffffffff16815260200190815260200160002060009054906101000a900460ff16905092915050565b60066020528060005260406000206000915090508060000160009054906101000a900473ffffffffffffffffffffffffffffffffffffffff16908060010154905082565b60007f01ffc9a7000000000000000000000000000000000000000000000000000000007bffffffffffffffffffffffffffffffffffffffffffffffffffffffff1916827bffffffffffffffffffffffffffffffffffffffffffffffffffffffff1916149050919050565b60006002600083815260200190815260200160002060009054906101000a900473ffffffffffffffffffffffffffffffffffffffff169050919050565b6000806115ba83611571565b9050600073ffffffffffffffffffffffffffffffffffffffff168173ffffffffffffffffffffffffffffffffffffffff160361162d57826040517f7e2732890000000000000000000000000000000000000000000000000000000081526004016116249190612757565b60405180910390fd5b80915050919050565b60006004600083815260200190815260200160002060009054906101000a900473ffffffffffffffffffffffffffffffffffffffff169050919050565b600033905090565b6116888383836001611cd0565b505050565b60008061169984611571565b9050600073ffffffffffffffffffffffffffffffffffffffff168373ffffffffffffffffffffffffffffffffffffffff16146116db576116da818486611e95565b5b600073ffffffffffffffffffffffffffffffffffffffff168173ffffffffffffffffffffffffffffffffffffffff161461176c5761171d600085600080611cd0565b6001600360008373ffffffffffffffffffffffffffffffffffffffff1673ffffffffffffffffffffffffffffffffffffffff168152602001908152602001600020600082825403925050819055505b600073ffffffffffffffffffffffffffffffffffffffff168573ffffffffffffffffffffffffffffffffffffffff16146117ef576001600360008773ffffffffffffffffffffffffffffffffffffffff1673ffffffffffffffffffffffffffffffffffffffff168152602001908152602001600020600082825401925050819055505b846002600086815260200190815260200160002060006101000a81548173ffffffffffffffffffffffffffffffffffffffff021916908373ffffffffffffffffffffffffffffffffffffffff160217905550838573ffffffffffffffffffffffffffffffffffffffff168273ffffffffffffffffffffffffffffffffffffffff167fddf252ad1be2c89b69c2b068fc378daa952ba7f163c4a11628f55a4df523b3ef60405160405180910390a4809150509392505050565b6118c1828260405180602001604052806000815250611f59565b5050565b600073ffffffffffffffffffffffffffffffffffffffff168273ffffffffffffffffffffffffffffffffffffffff160361193657816040517f5b08ba1800000000000000000000000000000000000000000000000000000000815260040161192d91906125c7565b60405180910390fd5b80600560008573ffffffffffffffffffffffffffffffffffffffff1673ffffffffffffffffffffffffffffffffffffffff16815260200190815260200160002060008473ffffffffffffffffffffffffffffffffffffffff1673ffffffffffffffffffffffffffffffffffffffff16815260200190815260200160002060006101000a81548160ff0219169083151502179055508173ffffffffffffffffffffffffffffffffffffffff168373ffffffffffffffffffffffffffffffffffffffff167f17307eab39ab6107e8899845ad3d59bd9653f200f220920489ca2b5937696c3183604051611a279190612336565b60405180910390a3505050565b60008373ffffffffffffffffffffffffffffffffffffffff163b1115611be5578273ffffffffffffffffffffffffffffffffffffffff1663150b7a02611a78611673565b8685856040518563ffffffff1660e01b8152600401611a9a9493929190612fa4565b6020604051808303816000875af1925050508015611ad657506040513d601f19601f82011682018060405250810190611ad39190613005565b60015b611b5a573d8060008114611b06576040519150601f19603f3d011682016040523d82523d6000602084013e611b0b565b606091505b506000815103611b5257836040517f64a0ae92000000000000000000000000000000000000000000000000000000008152600401611b4991906125c7565b60405180910390fd5b805181602001fd5b63150b7a0260e01b7bffffffffffffffffffffffffffffffffffffffffffffffffffffffff1916817bffffffffffffffffffffffffffffffffffffffffffffffffffffffff191614611be357836040517f64a0ae92000000000000000000000000000000000000000000000000000000008152600401611bda91906125c7565b60405180910390fd5b505b50505050565b606060405180602001604052806000815250905090565b606060006001611c1184611f75565b01905060008167ffffffffffffffff811115611c3057611c2f6127e8565b5b6040519080825280601f01601f191660200182016040528015611c625781602001600182028036833780820191505090505b509050600082602001820190505b600115611cc5578080600190039150507f3031323334353637383961626364656600000000000000000000000000000000600a86061a8153600a8581611cb957611cb8613032565b5b04945060008503611c70575b819350505050919050565b8080611d095750600073ffffffffffffffffffffffffffffffffffffffff168273ffffffffffffffffffffffffffffffffffffffff1614155b15611e3d576000611d19846115ae565b9050600073ffffffffffffffffffffffffffffffffffffffff168373ffffffffffffffffffffffffffffffffffffffff1614158015611d8457508273ffffffffffffffffffffffffffffffffffffffff168173ffffffffffffffffffffffffffffffffffffffff1614155b8015611d975750611d95818461142f565b155b15611dd957826040517fa9fbf51f000000000000000000000000000000000000000000000000000000008152600401611dd091906125c7565b60405180910390fd5b8115611e3b57838573ffffffffffffffffffffffffffffffffffffffff168273ffffffffffffffffffffffffffffffffffffffff167f8c5be1e5ebec7d5bd14f71427d1e84f3dd0314c0f7b2291e5b200ac8c7c3b92560405160405180910390a45b505b836004600085815260200190815260200160002060006101000a81548173ffffffffffffffffffffffffffffffffffffffff021916908373ffffffffffffffffffffffffffffffffffffffff16021790555050505050565b611ea08383836120c8565b611f5457600073ffffffffffffffffffffffffffffffffffffffff168373ffffffffffffffffffffffffffffffffffffffff1603611f1557806040517f7e273289000000000000000000000000000000000000000000000000000000008152600401611f0c9190612757565b60405180910390fd5b81816040517f177e802f000000000000000000000000000000000000000000000000000000008152600401611f4b9291906129d6565b60405180910390fd5b505050565b611f638383612189565b611f706000848484611a34565b505050565b600080600090507a184f03e93ff9f4daa797ed6e38ed64bf6a1f0100000000000000008310611fd3577a184f03e93ff9f4daa797ed6e38ed64bf6a1f0100000000000000008381611fc957611fc8613032565b5b0492506040810190505b6d04ee2d6d415b85acef81000000008310612010576d04ee2d6d415b85acef8100000000838161200657612005613032565b5b0492506020810190505b662386f26fc10000831061203f57662386f26fc10000838161203557612034613032565b5b0492506010810190505b6305f5e1008310612068576305f5e100838161205e5761205d613032565b5b0492506008810190505b612710831061208d57612710838161208357612082613032565b5b0492506004810190505b606483106120b057606483816120a6576120a5613032565b5b0492506002810190505b600a83106120bf576001810190505b80915050919050565b60008073ffffffffffffffffffffffffffffffffffffffff168373ffffffffffffffffffffffffffffffffffffffff161415801561218057508273ffffffffffffffffffffffffffffffffffffffff168473ffffffffffffffffffffffffffffffffffffffff1614806121415750612140848461142f565b5b8061217f57508273ffffffffffffffffffffffffffffffffffffffff1661216783611636565b73ffffffffffffffffffffffffffffffffffffffff16145b5b90509392505050565b600073ffffffffffffffffffffffffffffffffffffffff168273ffffffffffffffffffffffffffffffffffffffff16036121fb5760006040517f64a0ae920000000000000000000000000000000000000000000000000000000081526004016121f291906125c7565b60405180910390fd5b60006122098383600061168d565b9050600073ffffffffffffffffffffffffffffffffffffffff168173ffffffffffffffffffffffffffffffffffffffff161461227d5760006040517f73c6ac6e00000000000000000000000000000000000000000000000000000000815260040161227491906125c7565b60405180910390fd5b505050565b6000604051905090565b600080fd5b600080fd5b60007fffffffff0000000000000000000000000000000000000000000000000000000082169050919050565b6122cb81612296565b81146122d657600080fd5b50565b6000813590506122e8816122c2565b92915050565b6000602082840312156123045761230361228c565b5b6000612312848285016122d9565b91505092915050565b60008115159050919050565b6123308161231b565b82525050565b600060208201905061234b6000830184612327565b92915050565b6000819050919050565b61236481612351565b811461236f57600080fd5b50565b6000813590506123818161235b565b92915050565b6000806040838503121561239e5761239d61228c565b5b60006123ac85828601612372565b92505060206123bd85828601612372565b9150509250929050565b600081519050919050565b600082825260208201905092915050565b60005b838110156124015780820151818401526020810190506123e6565b60008484015250505050565b6000601f19601f8301169050919050565b6000612429826123c7565b61243381856123d2565b93506124438185602086016123e3565b61244c8161240d565b840191505092915050565b60006020820190508181036000830152612471818461241e565b905092915050565b600081519050919050565b600082825260208201905092915050565b6000819050602082019050919050565b6124ae81612351565b82525050565b60006124c083836124a5565b60208301905092915050565b6000602082019050919050565b60006124e482612479565b6124ee8185612484565b93506124f983612495565b8060005b8381101561252a57815161251188826124b4565b975061251c836124cc565b9250506001810190506124fd565b5085935050505092915050565b6000602082019050818103600083015261255181846124d9565b905092915050565b60006020828403121561256f5761256e61228c565b5b600061257d84828501612372565b91505092915050565b600073ffffffffffffffffffffffffffffffffffffffff82169050919050565b60006125b182612586565b9050919050565b6125c1816125a6565b82525050565b60006020820190506125dc60008301846125b8565b92915050565b6125eb816125a6565b81146125f657600080fd5b50565b600081359050612608816125e2565b92915050565b600080604083850312156126255761262461228c565b5b6000612633858286016125f9565b925050602061264485828601612372565b9150509250929050565b6000806000606084860312156126675761266661228c565b5b6000612675868287016125f9565b9350506020612686868287016125f9565b925050604061269786828701612372565b9150509250925092565b6000819050919050565b60006126c66126c16126bc84612586565b6126a1565b612586565b9050919050565b60006126d8826126ab565b9050919050565b60006126ea826126cd565b9050919050565b6126fa816126df565b82525050565b600060208201905061271560008301846126f1565b92915050565b6000602082840312156127315761273061228c565b5b600061273f848285016125f9565b91505092915050565b61275181612351565b82525050565b600060208201905061276c6000830184612748565b92915050565b61277b8161231b565b811461278657600080fd5b50565b60008135905061279881612772565b92915050565b600080604083850312156127b5576127b461228c565b5b60006127c3858286016125f9565b92505060206127d485828601612789565b9150509250929050565b600080fd5b600080fd5b7f4e487b7100000000000000000000000000000000000000000000000000000000600052604160045260246000fd5b6128208261240d565b810181811067ffffffffffffffff8211171561283f5761283e6127e8565b5b80604052505050565b6000612852612282565b905061285e8282612817565b919050565b600067ffffffffffffffff82111561287e5761287d6127e8565b5b6128878261240d565b9050602081019050919050565b82818337600083830152505050565b60006128b66128b184612863565b612848565b9050828152602081018484840111156128d2576128d16127e3565b5b6128dd848285612894565b509392505050565b600082601f8301126128fa576128f96127de565b5b813561290a8482602086016128a3565b91505092915050565b6000806000806080858703121561292d5761292c61228c565b5b600061293b878288016125f9565b945050602061294c878288016125f9565b935050604061295d87828801612372565b925050606085013567ffffffffffffffff81111561297e5761297d612291565b5b61298a878288016128e5565b91505092959194509250565b600080604083850312156129ad576129ac61228c565b5b60006129bb858286016125f9565b92505060206129cc858286016125f9565b9150509250929050565b60006040820190506129eb60008301856125b8565b6129f86020830184612748565b9392505050565b7f426f72726f77596f75724361723a206e6f6e65206578697374656e7420546f6b60008201527f656e000000000000000000000000000000000000000000000000000000000000602082015250565b6000612a5b6022836123d2565b9150612a66826129ff565b604082019050919050565b60006020820190508181036000830152612a8a81612a4e565b9050919050565b7f426f72726f77596f75724361723a206361722068617320616c7265616479206260008201527f65656e20626f72726f7765640000000000000000000000000000000000000000602082015250565b6000612aed602c836123d2565b9150612af882612a91565b604082019050919050565b60006020820190508181036000830152612b1c81612ae0565b9050919050565b7f4e487b7100000000000000000000000000000000000000000000000000000000600052601160045260246000fd5b6000612b5d82612351565b9150612b6883612351565b9250828202612b7681612351565b91508282048414831517612b8d57612b8c612b23565b5b5092915050565b6000612b9f82612351565b9150612baa83612351565b9250828201905080821115612bc257612bc1612b23565b5b92915050565b6000606082019050612bdd60008301866125b8565b612bea60208301856125b8565b612bf76040830184612748565b949350505050565b600081519050612c0e81612772565b92915050565b600060208284031215612c2a57612c2961228c565b5b6000612c3884828501612bff565b91505092915050565b6000608082019050612c566000830187612748565b612c6360208301866125b8565b612c706040830185612748565b612c7d6060830184612748565b95945050505050565b7f4e487b7100000000000000000000000000000000000000000000000000000000600052602260045260246000fd5b60006002820490506001821680612ccd57607f821691505b602082108103612ce057612cdf612c86565b5b50919050565b7f4e487b7100000000000000000000000000000000000000000000000000000000600052603260045260246000fd5b6000612d2082612351565b91507fffffffffffffffffffffffffffffffffffffffffffffffffffffffffffffffff8203612d5257612d51612b23565b5b600182019050919050565b6000606082019050612d7260008301866125b8565b612d7f6020830185612748565b612d8c60408301846125b8565b949350505050565b7f426f72726f77596f75724361723a20757365722068617320636c61696d65642060008201527f61697264726f7020616c72656164790000000000000000000000000000000000602082015250565b6000612df0602f836123d2565b9150612dfb82612d94565b604082019050919050565b60006020820190508181036000830152612e1f81612de3565b9050919050565b7f426f72726f77596f75724361723a206f7065726174696f6e2063616c6c65722060008201527f6973206e6f7420626f72726f7765720000000000000000000000000000000000602082015250565b6000612e82602f836123d2565b9150612e8d82612e26565b604082019050919050565b60006020820190508181036000830152612eb181612e75565b9050919050565b6000606082019050612ecd6000830186612748565b612eda60208301856125b8565b612ee76040830184612748565b949350505050565b600081905092915050565b6000612f05826123c7565b612f0f8185612eef565b9350612f1f8185602086016123e3565b80840191505092915050565b6000612f378285612efa565b9150612f438284612efa565b91508190509392505050565b600081519050919050565b600082825260208201905092915050565b6000612f7682612f4f565b612f808185612f5a565b9350612f908185602086016123e3565b612f998161240d565b840191505092915050565b6000608082019050612fb960008301876125b8565b612fc660208301866125b8565b612fd36040830185612748565b8181036060830152612fe58184612f6b565b905095945050505050565b600081519050612fff816122c2565b92915050565b60006020828403121561301b5761301a61228c565b5b600061302984828501612ff0565b91505092915050565b7f4e487b7100000000000000000000000000000000000000000000000000000000600052601260045260246000fdfea2646970667358221220e5d97afc2099f3544fd278079939492e0087bf747e1944c19a1c4975e9fd321a64736f6c6343000814003360806040523480156200001157600080fd5b506040518060400160405280600781526020017f4d79546f6b656e000000000000000000000000000000000000000000000000008152506040518060400160405280600681526020017f546f6b656e73000000000000000000000000000000000000000000000000000081525081600390816200008f919062000324565b508060049081620000a1919062000324565b5050506200040b565b600081519050919050565b7f4e487b7100000000000000000000000000000000000000000000000000000000600052604160045260246000fd5b7f4e487b7100000000000000000000000000000000000000000000000000000000600052602260045260246000fd5b600060028204905060018216806200012c57607f821691505b602082108103620001425762000141620000e4565b5b50919050565b60008190508160005260206000209050919050565b60006020601f8301049050919050565b600082821b905092915050565b600060088302620001ac7fffffffffffffffffffffffffffffffffffffffffffffffffffffffffffffffff826200016d565b620001b886836200016d565b95508019841693508086168417925050509392505050565b6000819050919050565b6000819050919050565b600062000205620001ff620001f984620001d0565b620001da565b620001d0565b9050919050565b6000819050919050565b6200022183620001e4565b6200023962000230826200020c565b8484546200017a565b825550505050565b600090565b6200025062000241565b6200025d81848462000216565b505050565b5b8181101562000285576200027960008262000246565b60018101905062000263565b5050565b601f821115620002d4576200029e8162000148565b620002a9846200015d565b81016020851015620002b9578190505b620002d1620002c8856200015d565b83018262000262565b50505b505050565b600082821c905092915050565b6000620002f960001984600802620002d9565b1980831691505092915050565b6000620003148383620002e6565b9150826002028217905092915050565b6200032f82620000aa565b67ffffffffffffffff8111156200034b576200034a620000b5565b5b62000357825462000113565b6200036482828562000289565b600060209050601f8311600181146200039c576000841562000387578287015190505b62000393858262000306565b86555062000403565b601f198416620003ac8662000148565b60005b82811015620003d657848901518255600182019150602085019450602081019050620003af565b86831015620003f65784890151620003f2601f891682620002e6565b8355505b6001600288020188555050505b505050505050565b611077806200041b6000396000f3fe608060405234801561001057600080fd5b506004361061009e5760003560e01c80634d06068a116100665780634d06068a1461015d57806370a082311461016757806395d89b4114610197578063a9059cbb146101b5578063dd62ed3e146101e55761009e565b806306fdde03146100a3578063095ea7b3146100c157806318160ddd146100f157806323b872dd1461010f578063313ce5671461013f575b600080fd5b6100ab610215565b6040516100b89190610c39565b60405180910390f35b6100db60048036038101906100d69190610cf4565b6102a7565b6040516100e89190610d4f565b60405180910390f35b6100f96102ca565b6040516101069190610d79565b60405180910390f35b61012960048036038101906101249190610d94565b6102d4565b6040516101369190610d4f565b60405180910390f35b610147610303565b6040516101549190610e03565b60405180910390f35b61016561030c565b005b610181600480360381019061017c9190610e1e565b610405565b60405161018e9190610d79565b60405180910390f35b61019f61044d565b6040516101ac9190610c39565b60405180910390f35b6101cf60048036038101906101ca9190610cf4565b6104df565b6040516101dc9190610d4f565b60405180910390f35b6101ff60048036038101906101fa9190610e4b565b610502565b60405161020c9190610d79565b60405180910390f35b60606003805461022490610eba565b80601f016020809104026020016040519081016040528092919081815260200182805461025090610eba565b801561029d5780601f106102725761010080835404028352916020019161029d565b820191906000526020600020905b81548152906001019060200180831161028057829003601f168201915b5050505050905090565b6000806102b2610589565b90506102bf818585610591565b600191505092915050565b6000600254905090565b6000806102df610589565b90506102ec8582856105a3565b6102f7858585610637565b60019150509392505050565b60006012905090565b60001515600560003373ffffffffffffffffffffffffffffffffffffffff1673ffffffffffffffffffffffffffffffffffffffff16815260200190815260200160002060009054906101000a900460ff1615151461039f576040517f08c379a000000000000000000000000000000000000000000000000000000000815260040161039690610f5d565b60405180910390fd5b6103ab3361271061072b565b6001600560003373ffffffffffffffffffffffffffffffffffffffff1673ffffffffffffffffffffffffffffffffffffffff16815260200190815260200160002060006101000a81548160ff021916908315150217905550565b60008060008373ffffffffffffffffffffffffffffffffffffffff1673ffffffffffffffffffffffffffffffffffffffff168152602001908152602001600020549050919050565b60606004805461045c90610eba565b80601f016020809104026020016040519081016040528092919081815260200182805461048890610eba565b80156104d55780601f106104aa576101008083540402835291602001916104d5565b820191906000526020600020905b8154815290600101906020018083116104b857829003601f168201915b5050505050905090565b6000806104ea610589565b90506104f7818585610637565b600191505092915050565b6000600160008473ffffffffffffffffffffffffffffffffffffffff1673ffffffffffffffffffffffffffffffffffffffff16815260200190815260200160002060008373ffffffffffffffffffffffffffffffffffffffff1673ffffffffffffffffffffffffffffffffffffffff16815260200190815260200160002054905092915050565b600033905090565b61059e83838360016107ad565b505050565b60006105af8484610502565b90507fffffffffffffffffffffffffffffffffffffffffffffffffffffffffffffffff81146106315781811015610621578281836040517ffb8f41b200000000000000000000000000000000000000000000000000000000815260040161061893929190610f8c565b60405180910390fd5b610630848484840360006107ad565b5b50505050565b600073ffffffffffffffffffffffffffffffffffffffff168373ffffffffffffffffffffffffffffffffffffffff16036106a95760006040517f96c6fd1e0000000000000000000000000000000000000000000000000000000081526004016106a09190610fc3565b60405180910390fd5b600073ffffffffffffffffffffffffffffffffffffffff168273ffffffffffffffffffffffffffffffffffffffff160361071b5760006040517fec442f050000000000000000000000000000000000000000000000000000000081526004016107129190610fc3565b60405180910390fd5b610726838383610984565b505050565b600073ffffffffffffffffffffffffffffffffffffffff168273ffffffffffffffffffffffffffffffffffffffff160361079d5760006040517fec442f050000000000000000000000000000000000000000000000000000000081526004016107949190610fc3565b60405180910390fd5b6107a960008383610984565b5050565b600073ffffffffffffffffffffffffffffffffffffffff168473ffffffffffffffffffffffffffffffffffffffff160361081f5760006040517fe602df050000000000000000000000000000000000000000000000000000000081526004016108169190610fc3565b60405180910390fd5b600073ffffffffffffffffffffffffffffffffffffffff168373ffffffffffffffffffffffffffffffffffffffff16036108915760006040517f94280d620000000000000000000000000000000000000000000000000000000081526004016108889190610fc3565b60405180910390fd5b81600160008673ffffffffffffffffffffffffffffffffffffffff1673ffffffffffffffffffffffffffffffffffffffff16815260200190815260200160002060008573ffffffffffffffffffffffffffffffffffffffff1673ffffffffffffffffffffffffffffffffffffffff16815260200190815260200160002081905550801561097e578273ffffffffffffffffffffffffffffffffffffffff168473ffffffffffffffffffffffffffffffffffffffff167f8c5be1e5ebec7d5bd14f71427d1e84f3dd0314c0f7b2291e5b200ac8c7c3b925846040516109759190610d79565b60405180910390a35b50505050565b600073ffffffffffffffffffffffffffffffffffffffff168373ffffffffffffffffffffffffffffffffffffffff16036109d65780600260008282546109ca919061100d565b92505081905550610aa9565b60008060008573ffffffffffffffffffffffffffffffffffffffff1673ffffffffffffffffffffffffffffffffffffffff16815260200190815260200160002054905081811015610a62578381836040517fe450d38c000000000000000000000000000000000000000000000000000000008152600401610a5993929190610f8c565b60405180910390fd5b8181036000808673ffffffffffffffffffffffffffffffffffffffff1673ffffffffffffffffffffffffffffffffffffffff16815260200190815260200160002081905550505b600073ffffffffffffffffffffffffffffffffffffffff168273ffffffffffffffffffffffffffffffffffffffff1603610af25780600260008282540392505081905550610b3f565b806000808473ffffffffffffffffffffffffffffffffffffffff1673ffffffffffffffffffffffffffffffffffffffff168152602001908152602001600020600082825401925050819055505b8173ffffffffffffffffffffffffffffffffffffffff168373ffffffffffffffffffffffffffffffffffffffff167fddf252ad1be2c89b69c2b068fc378daa952ba7f163c4a11628f55a4df523b3ef83604051610b9c9190610d79565b60405180910390a3505050565b600081519050919050565b600082825260208201905092915050565b60005b83811015610be3578082015181840152602081019050610bc8565b60008484015250505050565b6000601f19601f8301169050919050565b6000610c0b82610ba9565b610c158185610bb4565b9350610c25818560208601610bc5565b610c2e81610bef565b840191505092915050565b60006020820190508181036000830152610c538184610c00565b905092915050565b600080fd5b600073ffffffffffffffffffffffffffffffffffffffff82169050919050565b6000610c8b82610c60565b9050919050565b610c9b81610c80565b8114610ca657600080fd5b50565b600081359050610cb881610c92565b92915050565b6000819050919050565b610cd181610cbe565b8114610cdc57600080fd5b50565b600081359050610cee81610cc8565b92915050565b60008060408385031215610d0b57610d0a610c5b565b5b6000610d1985828601610ca9565b9250506020610d2a85828601610cdf565b9150509250929050565b60008115159050919050565b610d4981610d34565b82525050565b6000602082019050610d646000830184610d40565b92915050565b610d7381610cbe565b82525050565b6000602082019050610d8e6000830184610d6a565b92915050565b600080600060608486031215610dad57610dac610c5b565b5b6000610dbb86828701610ca9565b9350506020610dcc86828701610ca9565b9250506040610ddd86828701610cdf565b9150509250925092565b600060ff82169050919050565b610dfd81610de7565b82525050565b6000602082019050610e186000830184610df4565b92915050565b600060208284031215610e3457610e33610c5b565b5b6000610e4284828501610ca9565b91505092915050565b60008060408385031215610e6257610e61610c5b565b5b6000610e7085828601610ca9565b9250506020610e8185828601610ca9565b9150509250929050565b7f4e487b7100000000000000000000000000000000000000000000000000000000600052602260045260246000fd5b60006002820490506001821680610ed257607f821691505b602082108103610ee557610ee4610e8b565b5b50919050565b7f4d7945524332303a20757365722068617320636c61696d65642061697264726f60008201527f7020616c72656164790000000000000000000000000000000000000000000000602082015250565b6000610f47602983610bb4565b9150610f5282610eeb565b604082019050919050565b60006020820190508181036000830152610f7681610f3a565b9050919050565b610f8681610c80565b82525050565b6000606082019050610fa16000830186610f7d565b610fae6020830185610d6a565b610fbb6040830184610d6a565b949350505050565b6000602082019050610fd86000830184610f7d565b92915050565b7f4e487b7100000000000000000000000000000000000000000000000000000000600052601160045260246000fd5b600061101882610cbe565b915061102383610cbe565b925082820190508082111561103b5761103a610fde565b5b9291505056fea264697066735822122010ff8d5da1c566d468821e5ed15bb109a4a7b35637ae5219c7933b24cec8565a64736f6c63430008140033",
  "linkReferences": {},
  "deployedLinkReferences": {}
}